{
  "_format": "hh-sol-artifact-1",
  "contractName": "MockV3Aggregator",
  "sourceName": "contracts/MockV3Aggregator.sol",
  "abi": [
    {
      "inputs": [
        {
          "internalType": "uint8",
          "name": "_decimals",
          "type": "uint8"
        },
        {
          "internalType": "int256",
          "name": "_initialAnswer",
          "type": "int256"
        }
      ],
      "stateMutability": "nonpayable",
      "type": "constructor"
    },
    {
      "inputs": [],
      "name": "decimals",
      "outputs": [
        {
          "internalType": "uint8",
          "name": "",
          "type": "uint8"
        }
      ],
      "stateMutability": "view",
      "type": "function"
    },
    {
      "inputs": [],
      "name": "latestAnswer",
      "outputs": [
        {
          "internalType": "int256",
          "name": "",
          "type": "int256"
        }
      ],
      "stateMutability": "view",
      "type": "function"
    },
    {
      "inputs": [],
      "name": "latestRoundData",
      "outputs": [
        {
          "internalType": "uint80",
          "name": "roundId",
          "type": "uint80"
        },
        {
          "internalType": "int256",
          "name": "answer",
          "type": "int256"
        },
        {
          "internalType": "uint256",
          "name": "startedAt",
          "type": "uint256"
        },
        {
          "internalType": "uint256",
          "name": "updatedAt",
          "type": "uint256"
        },
        {
          "internalType": "uint80",
          "name": "answeredInRound",
          "type": "uint80"
        }
      ],
      "stateMutability": "view",
      "type": "function"
    }
  ],
  "bytecode": "0x608060405234801561001057600080fd5b5060405161032c38038061032c833981810160405281019061003291906100ce565b816000806101000a81548160ff021916908360ff16021790555080600181905550505061010e565b600080fd5b600060ff82169050919050565b6100758161005f565b811461008057600080fd5b50565b6000815190506100928161006c565b92915050565b6000819050919050565b6100ab81610098565b81146100b657600080fd5b50565b6000815190506100c8816100a2565b92915050565b600080604083850312156100e5576100e461005a565b5b60006100f385828601610083565b9250506020610104858286016100b9565b9150509250929050565b61020f8061011d6000396000f3fe608060405234801561001057600080fd5b50600436106100415760003560e01c8063313ce5671461004657806350d25bcd14610064578063feaf968c14610082575b600080fd5b61004e6100a4565b60405161005b91906100f9565b60405180910390f35b61006c6100b5565b604051610079919061012d565b60405180910390f35b61008a6100bb565b60405161009b959493929190610186565b60405180910390f35b60008054906101000a900460ff1681565b60015481565b6000806000806000806001546000806000945094509450945094509091929394565b600060ff82169050919050565b6100f3816100dd565b82525050565b600060208201905061010e60008301846100ea565b92915050565b6000819050919050565b61012781610114565b82525050565b6000602082019050610142600083018461011e565b92915050565b600069ffffffffffffffffffff82169050919050565b61016781610148565b82525050565b6000819050919050565b6101808161016d565b82525050565b600060a08201905061019b600083018861015e565b6101a8602083018761011e565b6101b56040830186610177565b6101c26060830185610177565b6101cf608083018461015e565b969550505050505056fea26469706673582212200368ac8f4a2b5284eacdcf6c6941fe187dce00b7a5145cd22ccb5ad4b4f66af364736f6c63430008180033",
  "linkReferences": {},
  "deployedLinkReferences": {}
}