{"contracts/MockV3Aggregator.sol":{"MockV3Aggregator":{"abi":[{"inputs":[{"internalType":"uint8","name":"_decimals","type":"uint8"},{"internalType":"int256","name":"_initialAnswer","type":"int256"}],"stateMutability":"nonpayable","type":"constructor"},{"inputs":[],"name":"decimals","outputs":[{"internalType":"uint8","name":"","type":"uint8"}],"stateMutability":"view","type":"function"},{"inputs":[],"name":"latestAnswer","outputs":[{"internalType":"int256","name":"","type":"int256"}],"stateMutability":"view","type":"function"},{"inputs":[],"name":"latestRoundData","outputs":[{"internalType":"uint80","name":"roundId","type":"uint80"},{"internalType":"int256","name":"answer","type":"int256"},{"internalType":"uint256","name":"startedAt","type":"uint256"},{"internalType":"uint256","name":"updatedAt","type":"uint256"},{"internalType":"uint80","name":"answeredInRound","type":"uint80"}],"stateMutability":"view","type":"function"}],"evm":{"bytecode":{"linkReferences":{},"object":"608060405234801561001057600080fd5b5060405161032c38038061032c833981810160405281019061003291906100ce565b816000806101000a81548160ff021916908360ff16021790555080600181905550505061010e565b600080fd5b600060ff82169050919050565b6100758161005f565b811461008057600080fd5b50565b6000815190506100928161006c565b92915050565b6000819050919050565b6100ab81610098565b81146100b657600080fd5b50565b6000815190506100c8816100a2565b92915050565b600080604083850312156100e5576100e461005a565b5b60006100f385828601610083565b9250506020610104858286016100b9565b9150509250929050565b61020f8061011d6000396000f3fe608060405234801561001057600080fd5b50600436106100415760003560e01c8063313ce5671461004657806350d25bcd14610064578063feaf968c14610082575b600080fd5b61004e6100a4565b60405161005b91906100f9565b60405180910390f35b61006c6100b5565b604051610079919061012d565b60405180910390f35b61008a6100bb565b60405161009b959493929190610186565b60405180910390f35b60008054906101000a900460ff1681565b60015481565b6000806000806000806001546000806000945094509450945094509091929394565b600060ff82169050919050565b6100f3816100dd565b82525050565b600060208201905061010e60008301846100ea565b92915050565b6000819050919050565b61012781610114565b82525050565b6000602082019050610142600083018461011e565b92915050565b600069ffffffffffffffffffff82169050919050565b61016781610148565b82525050565b6000819050919050565b6101808161016d565b82525050565b600060a08201905061019b600083018861015e565b6101a8602083018761011e565b6101b56040830186610177565b6101c26060830185610177565b6101cf608083018461015e565b969550505050505056fea26469706673582212200368ac8f4a2b5284eacdcf6c6941fe187dce00b7a5145cd22ccb5ad4b4f66af364736f6c63430008180033","opcodes":"PUSH1 0x80 PUSH1 0x40 MSTORE CALLVALUE DUP1 ISZERO PUSH2 0x10 JUMPI PUSH1 0x0 DUP1 REVERT JUMPDEST POP PUSH1 0x40 MLOAD PUSH2 0x32C CODESIZE SUB DUP1 PUSH2 0x32C DUP4 CODECOPY DUP2 DUP2 ADD PUSH1 0x40 MSTORE DUP2 ADD SWAP1 PUSH2 0x32 SWAP2 SWAP1 PUSH2 0xCE JUMP JUMPDEST DUP2 PUSH1 0x0 DUP1 PUSH2 0x100 EXP DUP2 SLOAD DUP2 PUSH1 0xFF MUL NOT AND SWAP1 DUP4 PUSH1 0xFF AND MUL OR SWAP1 SSTORE POP DUP1 PUSH1 0x1 DUP2 SWAP1 SSTORE POP POP POP PUSH2 0x10E JUMP JUMPDEST PUSH1 0x0 DUP1 REVERT JUMPDEST PUSH1 0x0 PUSH1 0xFF DUP3 AND SWAP1 POP SWAP2 SWAP1 POP JUMP JUMPDEST PUSH2 0x75 DUP2 PUSH2 0x5F JUMP JUMPDEST DUP2 EQ PUSH2 0x80 JUMPI PUSH1 0x0 DUP1 REVERT JUMPDEST POP JUMP JUMPDEST PUSH1 0x0 DUP2 MLOAD SWAP1 POP PUSH2 0x92 DUP2 PUSH2 0x6C JUMP JUMPDEST SWAP3 SWAP2 POP POP JUMP JUMPDEST PUSH1 0x0 DUP2 SWAP1 POP SWAP2 SWAP1 POP JUMP JUMPDEST PUSH2 0xAB DUP2 PUSH2 0x98 JUMP JUMPDEST DUP2 EQ PUSH2 0xB6 JUMPI PUSH1 0x0 DUP1 REVERT JUMPDEST POP JUMP JUMPDEST PUSH1 0x0 DUP2 MLOAD SWAP1 POP PUSH2 0xC8 DUP2 PUSH2 0xA2 JUMP JUMPDEST SWAP3 SWAP2 POP POP JUMP JUMPDEST PUSH1 0x0 DUP1 PUSH1 0x40 DUP4 DUP6 SUB SLT ISZERO PUSH2 0xE5 JUMPI PUSH2 0xE4 PUSH2 0x5A JUMP JUMPDEST JUMPDEST PUSH1 0x0 PUSH2 0xF3 DUP6 DUP3 DUP7 ADD PUSH2 0x83 JUMP JUMPDEST SWAP3 POP POP PUSH1 0x20 PUSH2 0x104 DUP6 DUP3 DUP7 ADD PUSH2 0xB9 JUMP JUMPDEST SWAP2 POP POP SWAP3 POP SWAP3 SWAP1 POP JUMP JUMPDEST PUSH2 0x20F DUP1 PUSH2 0x11D PUSH1 0x0 CODECOPY PUSH1 0x0 RETURN INVALID PUSH1 0x80 PUSH1 0x40 MSTORE CALLVALUE DUP1 ISZERO PUSH2 0x10 JUMPI PUSH1 0x0 DUP1 REVERT JUMPDEST POP PUSH1 0x4 CALLDATASIZE LT PUSH2 0x41 JUMPI PUSH1 0x0 CALLDATALOAD PUSH1 0xE0 SHR DUP1 PUSH4 0x313CE567 EQ PUSH2 0x46 JUMPI DUP1 PUSH4 0x50D25BCD EQ PUSH2 0x64 JUMPI DUP1 PUSH4 0xFEAF968C EQ PUSH2 0x82 JUMPI JUMPDEST PUSH1 0x0 DUP1 REVERT JUMPDEST PUSH2 0x4E PUSH2 0xA4 JUMP JUMPDEST PUSH1 0x40 MLOAD PUSH2 0x5B SWAP2 SWAP1 PUSH2 0xF9 JUMP JUMPDEST PUSH1 0x40 MLOAD DUP1 SWAP2 SUB SWAP1 RETURN JUMPDEST PUSH2 0x6C PUSH2 0xB5 JUMP JUMPDEST PUSH1 0x40 MLOAD PUSH2 0x79 SWAP2 SWAP1 PUSH2 0x12D JUMP JUMPDEST PUSH1 0x40 MLOAD DUP1 SWAP2 SUB SWAP1 RETURN JUMPDEST PUSH2 0x8A PUSH2 0xBB JUMP JUMPDEST PUSH1 0x40 MLOAD PUSH2 0x9B SWAP6 SWAP5 SWAP4 SWAP3 SWAP2 SWAP1 PUSH2 0x186 JUMP JUMPDEST PUSH1 0x40 MLOAD DUP1 SWAP2 SUB SWAP1 RETURN JUMPDEST PUSH1 0x0 DUP1 SLOAD SWAP1 PUSH2 0x100 EXP SWAP1 DIV PUSH1 0xFF AND DUP2 JUMP JUMPDEST PUSH1 0x1 SLOAD DUP2 JUMP JUMPDEST PUSH1 0x0 DUP1 PUSH1 0x0 DUP1 PUSH1 0x0 DUP1 PUSH1 0x1 SLOAD PUSH1 0x0 DUP1 PUSH1 0x0 SWAP5 POP SWAP5 POP SWAP5 POP SWAP5 POP SWAP5 POP SWAP1 SWAP2 SWAP3 SWAP4 SWAP5 JUMP JUMPDEST PUSH1 0x0 PUSH1 0xFF DUP3 AND SWAP1 POP SWAP2 SWAP1 POP JUMP JUMPDEST PUSH2 0xF3 DUP2 PUSH2 0xDD JUMP JUMPDEST DUP3 MSTORE POP POP JUMP JUMPDEST PUSH1 0x0 PUSH1 0x20 DUP3 ADD SWAP1 POP PUSH2 0x10E PUSH1 0x0 DUP4 ADD DUP5 PUSH2 0xEA JUMP JUMPDEST SWAP3 SWAP2 POP POP JUMP JUMPDEST PUSH1 0x0 DUP2 SWAP1 POP SWAP2 SWAP1 POP JUMP JUMPDEST PUSH2 0x127 DUP2 PUSH2 0x114 JUMP JUMPDEST DUP3 MSTORE POP POP JUMP JUMPDEST PUSH1 0x0 PUSH1 0x20 DUP3 ADD SWAP1 POP PUSH2 0x142 PUSH1 0x0 DUP4 ADD DUP5 PUSH2 0x11E JUMP JUMPDEST SWAP3 SWAP2 POP POP JUMP JUMPDEST PUSH1 0x0 PUSH10 0xFFFFFFFFFFFFFFFFFFFF DUP3 AND SWAP1 POP SWAP2 SWAP1 POP JUMP JUMPDEST PUSH2 0x167 DUP2 PUSH2 0x148 JUMP JUMPDEST DUP3 MSTORE POP POP JUMP JUMPDEST PUSH1 0x0 DUP2 SWAP1 POP SWAP2 SWAP1 POP JUMP JUMPDEST PUSH2 0x180 DUP2 PUSH2 0x16D JUMP JUMPDEST DUP3 MSTORE POP POP JUMP JUMPDEST PUSH1 0x0 PUSH1 0xA0 DUP3 ADD SWAP1 POP PUSH2 0x19B PUSH1 0x0 DUP4 ADD DUP9 PUSH2 0x15E JUMP JUMPDEST PUSH2 0x1A8 PUSH1 0x20 DUP4 ADD DUP8 PUSH2 0x11E JUMP JUMPDEST PUSH2 0x1B5 PUSH1 0x40 DUP4 ADD DUP7 PUSH2 0x177 JUMP JUMPDEST PUSH2 0x1C2 PUSH1 0x60 DUP4 ADD DUP6 PUSH2 0x177 JUMP JUMPDEST PUSH2 0x1CF PUSH1 0x80 DUP4 ADD DUP5 PUSH2 0x15E JUMP JUMPDEST SWAP7 SWAP6 POP POP POP POP POP POP JUMP INVALID LOG2 PUSH5 0x6970667358 0x22 SLT KECCAK256 SUB PUSH9 0xAC8F4A2B5284EACDCF PUSH13 0x6941FE187DCE00B7A5145CD22C 0xCB GAS 0xD4 0xB4 0xF6 PUSH11 0xF364736F6C634300081800 CALLER "},"methodIdentifiers":{"decimals()":"313ce567","latestAnswer()":"50d25bcd","latestRoundData()":"feaf968c"}}}}}